:1000000000800020852D0000B12D0000B12D0000E2
:10001000B12D0000B12D0000B12D0000B12D000068
:10002000B12D0000B12D0000B12D0000B12D000058
:10003000B12D0000B12D0000B12D0000B12D000048
:10004000B12D0000B12D0000B12D0000B12D000038
:10005000B12D0000B12D0000B12D0000B12D000028
:10006000B12D000065060000B12D0000292B000015
:10007000B12D0000B12D0000B12D0000B12D000008
:10008000B12D000085060000B12D0000B12D00004B
:10009000B12D0000B12D0000B12D0000B12D0000E8
:1000A000B12D0000B12D0000B12D0000B12D0000D8
:1000B000B12D000045060000B12D0000290600000A
:1000C000B12D0000B12D000010B5054C237833B9D7
:1000D000044B13B10448AFF300800123237010BD1B
:1000E000BC000020000000007064000008B5064B52
:1000F0001BB106480649AFF300800648036813B1F8
:10010000054B03B1984708BD000000007064000073
:10011000C0000020B800002000000000154B002B9C
:1001200008BF134B9D46A3F5803A00218B460F462E
:100130001348144A121A02F0F9FF0F4B002B00D09B
:1001400098470E4B002B00D0984700200021040058
:100150000D000D48002802D00C48AFF3008002F0DB
:10016000BFFF2000290000F0A7FA02F0B9FE00BF8F
:1001700000000800008000200000000000000000D7
:10018000BC0000202C010020000000000000000046
:1001900080B483B000AF0346FB71084B97F907208A
:1001A0005209F97901F01F01012000FA01F143F829
:1001B00022100C37BD465DF8047B704700E100E07B
:1001C00080B483B000AF0346FB71094B97F9072059
:1001D0005209F97901F01F01012000FA01F16032A2
:1001E00043F822100C37BD465DF8047B704700BF12
:1001F00000E100E080B400AFBD465DF8047B7047CD
:1002000080B487B000AFF860B9607A60FB6803F132
:100210000473DA00BB6813449B007B617B697A68D6
:100220001A601C37BD465DF8047B704780B485B00A
:1002300000AF786039607B6803F10473DA003B68D3
:1002400013449B00FB60FB681B6818461437BD46CF
:100250005DF8047B704700BF80B582B000AF0346F5
:100260003960FB71FB79002B1DD0FB79012B17D076
:10027000FB79022B11D0FB79032B0BD0FB79042BDC
:1002800006D0FB79052B01D1FF230DE000230BE005
:10029000002309E04FF47E4306E04FF47C6303E063
:1002A0004FF4784300E03F233A68134103F0010321
:1002B000002B04D10B4840F2A62100F0B3FBFA79E1
:1002C00013465B0013441B011C3303F1804303F509
:1002D000204318463968FFF7A9FF03461846083738
:1002E000BD4680BD5C5F000080B582B000AF0346B4
:1002F0003960FB71FB79002B1DD0FB79012B17D0E6
:10030000FB79022B11D0FB79032B0BD0FB79042B4B
:1003100006D0FB79052B01D1FF230DE000230BE074
:10032000002309E04FF47E4306E04FF47C6303E0D2
:100330004FF4784300E03F233A68134103F0010390
:10034000002B04D10B484FF42F7100F06BFBFA79AE
:1003500013465B0013441B010C3303F1804303F588
:100360002043184639680022FFF74AFF0837BD4688
:1003700080BD00BF5C5F000080B582B000AF034667
:100380003960FB71FB79002B1DD0FB79012B17D055
:10039000FB79022B11D0FB79032B0BD0FB79042BBB
:1003A00006D0FB79052B01D1FF230DE000230BE0E4
:1003B000002309E04FF47E4306E04FF47C6303E042
:1003C0004FF4784300E03F233A68134103F0010300
:1003D000002B04D10A4840F2053100F023FB094804
:1003E000FA793B68012101FA03F3194613465B00D1
:1003F00013441B010344183319600837BD4680BD00
:100400005C5F000000A0004080B483B000AF786063
:10041000034B7A685A610C37BD465DF8047B704720
:100420000020044080B483B000AF7860054B054ADB
:10043000516A7A680A435A620C37BD465DF8047BFC
:10044000704700BF0020044080B483B000AF7860E4
:10045000034B7A681A610C37BD465DF8047B704720
:100460000020044080B483B000AF7860064B064A99
:10047000D1697A6802F001020A43DA610C37BD469D
:100480005DF8047B704700BF00E0014080B582B09A
:1004900002AF3548012100F02FFC0320092103227F
:1004A000012301F031FF01230093032009210022E1
:1004B000012301F0A3FE022007210322012301F002
:1004C00023FF01230093022007210022012301F0D2
:1004D00095FE002003210322012301F015FF0123D3
:1004E0000093002003210022012301F087FE012058
:1004F0000D210322012301F007FF012300930120B6
:100500000D210022012301F079FE002004210622A2
:10051000002301F0F9FE03200A210622002301F046
:10052000F3FE03200B210622002301F0EDFE05203F
:1005300006210222012301F0E7FE0123009305209A
:1005400006210022012301F059FE0920FFF738FEA1
:100550000920FFF71DFE1120FFF732FE1120FFF7E3
:1005600017FEBD4680BD00BF0025080080B584B0E1
:1005700000AF154A3B1D1068516803C3127A1A7008
:100580001248012100F0B8FB00233B710F233B729E
:100590000123FB723B1D184601F072FF0C48FFF768
:1005A00033FF0C48FFF750FF2020FFF73BFF1D20D3
:1005B000FFF706FE1D20FFF7EBFD012001F050FFC5
:1005C0001037BD4680BD00BFB05F0000900910002D
:1005D000280216064559230080B582B000AF104AA4
:1005E0003B461068186092889A800E48012100F0FE
:1005F00083FB0123FB7009237B7101233B703B4686
:10060000184600F03FFF0120FFF72CFF1F20FFF7E7
:10061000D7FD1F20FFF7BCFD0837BD4680BD00BFDA
:10062000BC5F00000062040080B400AF034B9A6915
:10063000034B1A60BD465DF8047B704700E0014043
:100640001C01002080B500AF044B1A6A044B1A60ED
:1006500002200621FFF790FE80BD00BF002004406D
:100660002001002080B400AF044BD3F82424044BB5
:100670001A60BD465DF8047B704700BF00A00040D3
:100680001801002080B500AF084BD3F82424084B94
:100690001A6000F0D3F803461A46064B1A70054B51
:1006A0001B78184600F0A8F980BD00BF00A00040EC
:1006B000180100201401002080B584B000AF264A44
:1006C0003B1D10685168926807C3FFF793FD3B1DFF
:1006D000184601F0F5F92148012100F00DFB2048F2
:1006E000022100F0F7FC00200121012200F004FEAD
:1006F0001C4B1C4A126842F008021A6002F064FAAD
:10070000012002F04BFA184B0022DA64FFF7BEFE1C
:10071000FFF72CFFFFF760FF144802F063FD00F0C5
:100720002DF8012000F0E0FF114B1B68002B07D1D2
:10073000104B1B68002B03D10F4B1B68002B09D0FB
:100740000D4B00221A600A4B00221A60094B00224E
:100750001A60E4E7E3E700BF1C6000000005080042
:1007600005001E0000000E40000001400060000077
:1007700020010020180100201C01002080B500AFDE
:100780002D4B00221A7052E02B4B1B78012B1AD0F4
:10079000022B2FD0002B44D100200421042200235F
:1007A00001F0B2FD00200421FFF79EFD03200A2185
:1007B0000622002301F0A8FD03200B2106220023BE
:1007C00001F0A2FD2DE0002004210622002301F00B
:1007D0009BFD03200A210422002301F095FD032044
:1007E0000A21FFF781FD03200B210622002301F0DF
:1007F0008BFD16E0002004210622002301F084FD79
:1008000003200A210622002301F07EFD03200B2194
:100810000422002301F078FD03200B21FFF764FD83
:1008200000BF054B1B780133DAB2034B1A70024B41
:100830001B78022BA8D980BD1501002080B582B09D
:1008400000AF4D23FB71694B1B78012B2CD0022B81
:1008500053D0002B7AD103200921FFF7FDFC03467A
:10086000002B02D13123FB711DE002200721FFF78D
:10087000F3FC0346002B02D13423FB7113E000206C
:100880000321FFF7E9FC0346002B02D13723FB715C
:1008900009E001200D21FFF7DFFC0346002B02D108
:1008A0004323FB7152E051E003200921FFF7D4FC00
:1008B0000346002B02D13223FB711DE002200721E9
:1008C000FFF7CAFC0346002B02D13523FB7113E06E
:1008D00000200321FFF7C0FC0346002B02D1382380
:1008E000FB7109E001200D21FFF7B6FC0346002B48
:1008F00002D13023FB7129E028E003200921FFF712
:10090000ABFC0346002B02D13323FB711DE0022018
:100910000721FFF7A1FC0346002B02D13623FB7110
:1009200013E000200321FFF797FC0346002B02D1C0
:100930003923FB7109E001200D21FFF78DFC0346EF
:10094000002B02D14C23FB71FFE700BF284B1B7823
:10095000082B46D801A252F823F000BF81090000FD
:100960009709000097090000970900009709000007
:10097000970900009709000097090000BF090000CF
:100980001C4BFA791A701A4B1B780133DAB2184BE8
:100990001A70002325E0174B1B78FA799A4209D187
:1009A000144BFA791A70124B1B780133DAB2104BE0
:1009B0001A7002E00E4B00221A70002311E00D4B5A
:1009C0001B78FA799A4207D10A4BFA791A70084BC8
:1009D00000221A70FB7904E0054B00221A700023F4
:1009E000FFE718460837BD4680BD00BF150100204F
:1009F000D80000200000002080B582B000AF034680
:100A0000FB71FB794C2B07D8FB79002B04D0FB79C9
:100A10000348194602F0E6FB0837BD4680BD00BF1B
:100A20002860000080B483B000AF78603960FEE7D2
:100A300080B487B000AFF860B9607A60FB6803F1FA
:100A40000473DA00BB6813449B007B617B697A689E
:100A50001A601C37BD465DF8047B704780B485B0D2
:100A600000AF786039607B6803F10473DA003B689B
:100A700013449B00FB60FB681B6818461437BD4697
:100A80005DF8047B704700BF80B483B000AF78602E
:100A900039607B681A683B68134018460C37BD46BE
:100AA0005DF8047B704700BF80B483B000AF78600E
:100AB0007B68012202FA03F318460C37BD465DF845
:100AC000047B704780B483B000AF054B1B687B602C
:100AD0007B6818460C37BD465DF8047B704700BF45
:100AE0000400002080B582B000AF0F4800F046FA45
:100AF0000346FB70FB78082B05D0092B07D102F0C9
:100B000085F978600AE0FFF7DDFF786006E00748C6
:100B1000C321FFF787FF00237B6000BF7B68184677
:100B20000837BD4680BD00BF06000C008C60000089
:100B300080B485B000AF7860184B1B6C002B0CBFE5
:100B400000230123FB72154B41F671321A64134BDB
:100B50005B6803F04073FB607A68114B9A4207D8D8
:100B60007A68104B9A4203D94FF08073FB6001E022
:100B70000023FB60094B094A526822F04071FA6871
:100B80000A435A60FB7A002B02D0044B00221A64FD
:100B90001437BD465DF8047B704700BF00000E406F
:100BA000005A620280BA8C0180B500AF02F024F9CD
:100BB00003461846FFF7BCFF80BD00BF80B584B078
:100BC00000AF78600023BB607B68384A93420BD04B
:100BD000374A934208D0374A934205D036484FF4FB
:100BE000A871FFF71FFF00E000BF786800F0C6F9AA
:100BF0000346FB607B682D4A93420CD02C4A9342FB
:100C000010D02C4A934214D12C4BD3F8803003F0EF
:100C10000703FB6013E0294BD3F8843003F007038C
:100C2000FB600CE0254BD3F8883003F00703FB6032
:100C300005E021484FF4BD71FFF7F4FE00BFFB68EB
:100C4000042B2ED801A252F823F000BF9D0C000007
:100C5000610C0000690C0000790C0000710C0000B0
:100C600002F01EF9B8601CE002F02EF9B86018E03E
:100C700002F020F9B86014E0104BD3F8003103F013
:100C80008073002B04D002F095F803469B0803E024
:100C900002F090F803465B08BB6002E00023BB60F3
:100CA00000BFBB6818461037BD4680BD03001A0060
:100CB00005001E00020018008C60000000400E407D
:100CC00080B483B000AF78600A4BD3F8443103F0AE
:100CD0000103002B00D007E000BF064BD3F84021F2
:100CE0007B681340002BF8D10C37BD465DF8047BC0
:100CF000704700BF00400E4080B586B000AF7860FE
:100D00000B46FB7000233B617B681B0A03F00F035B
:100D1000013B092B32D801A252F823F0450D000007
:100D2000510D00007D0D00007D0D00004B0D0000F9
:100D3000570D0000610D00007D0D00006B0D0000DF
:100D4000770D00001A4B7B611EE01A4B7B611BE0A4
:100D5000194B7B6118E0194B7B6101233B6113E068
:100D6000174B7B6110233B610EE0164B7B614FF408
:100D700080333B6108E0144B7B6105E0134840F28F
:100D8000AE51FFF74FFE10E07B681B0B03F01F0313
:100D9000FB603B69002B02D03869FFF791FFFB78BD
:100DA0007869F9681A46FFF743FE1837BD4680BDDB
:100DB00000400E40B0400E40C0400E40E0400E40AB
:100DC000E8400E40F0400E4050410E408C60000064
:100DD00080B584B000AF78607B6803F47813B3F516
:100DE000602F00F0AD80B3F5602F16D8B3F5802FDB
:100DF00039D0B3F5802F05D8002B25D0B3F5003FAF
:100E000044D0A1E0B3F5202F4FD0B3F5402F00F030
:100E10009380B3F5002F35D096E0B3F5A01F74D0C2
:100E2000B3F5A01F06D8B3F5801F52D0B3F5901FBD
:100E300054D089E0B3F5D01F62D0B3F5F01F76D05F
:100E4000B3F5C01F40D07FE001F0E0FFF860454BF4
:100E5000D3F8003103F4F8531B0A0133FA68B2FBEC
:100E6000F3F3FB6078E001F0D1FFF8603D4BD3F87D
:100E70000C213D4B13401B0A0133FA68B2FBF3F31C
:100E8000FB6069E001F0C2FFF86065E001F0BEFFC1
:100E9000F860344BD3F80821334B13401B0A01335D
:100EA000FA68B2FBF3F3FB6056E001F0AFFFF860C5
:100EB0002C4BD3F8143103F4F8531B0A0133FA68AE
:100EC000B2FBF3F3FB6047E02848FFF777FEF860DA
:100ED00042E02748FFF772FEF8603DE02348FFF745
:100EE0006DFEF8601F4BD3F8203103F00F03184656
:100EF000FFF7DAFD0346FA68B2FBF3F3FB602BE081
:100F00001C48FFF75BFEF86026E01A48FFF756FE24
:100F1000F860144BD3F8283103F003031846FFF7A9
:100F2000C3FD0346FA68B2FBF3F3FB6014E010481C
:100F3000FFF744FEF8600FE0FFF7D4FDF8600BE028
:100F4000FFF7C0FDF86007E00B4840F28461FFF74F
:100F500069FD0023FB6000BFFB6818461037BD46E3
:100F600080BD00BF00400E4000FF010002001800DD
:100F700005001E0003001A008C60000080B584B0DC
:100F800000AF78600123FB737B6803F00F03BB6045
:100F9000BB68013B052B00F28C8001A252F823F0C4
:100FA000B90F0000E90F000019100000B310000095
:100FB0006110000091100000444B5B6F03F00703C9
:100FC000032B07D0042B02D0022B06D008E002230B
:100FD000FB7308E00323FB7305E00423FB7302E0CB
:100FE0000523FB7300BF6CE0384BD3F8803003F06F
:100FF0000703022B06D0042B07D0012B08D10323B3
:10100000FB7308E00223FB7305E00A23FB7302E095
:101010000123FB7300BF54E02C4BD3F8843003F062
:101020000703013B032B17D801A252F823F000BF9E
:101030004110000047100000531000004D10000048
:101040000323FB730BE00223FB7308E00A23FB730B
:1010500005E00623FB7302E00123FB7300BF30E0D1
:101060001A4BD3F8883003F00703022B06D0042B69
:1010700007D0012B08D10323FB7308E00223FB7385
:1010800005E00A23FB7302E00123FB7300BF18E0B5
:101090000E4B1B6F03F00103002B04D0012B05D175
:1010A0000923FB7302E00823FB7300BF0823FB73D3
:1010B00007E0074840F63511FFF7B4FC0023FB7347
:1010C00000BFFB7B18461037BD4680BD00400E4078
:1010D0008C60000080B588B000AF78600B46FB7074
:1010E0000323FB610323FB7600233B617B6803F052
:1010F0000F03FB60FB68013B042B00F2E38001A2BD
:1011000052F823F019110000CF1100000B1200005B
:10111000C5120000ED110000FB78023B082B3CD803
:1011200001A252F823F000BF4D110000571100003A
:1011300061110000851100009B1100009B1100004F
:101140009B1100009B1100008F1100000423FB6124
:101150000023FB7627E00323FB610123FB7622E0DB
:101160000223FB760223FB6101F07EFE02465A4B0E
:101170009A4206D9594B594A126842F480321A6091
:1011800011E010E00123FB610323FB760BE05448E0
:1011900040F6C911FFF746FC9AE0514840F6CE11DF
:1011A000FFF740FC94E0FB7E18460121012200F08D
:1011B000A3F8FFF7F9FC494BFA695A6700F0CCFA3B
:1011C00001F0F8FDB860B868FFF7B2FC80E03B6959
:1011D000002B01D03B6900E0424B3B61FB78062BC2
:1011E00004D13F4840F6EF11FFF71CFC3B69002B90
:1011F00001D03B6900E03C4B3B61FB78062B04D1FE
:10120000374840F6F511FFF70DFC3B69002B01D084
:101210003B6900E0354B3B61FB78013B092B47D82C
:1012200001A252F823F000BF511200005712000033
:1012300067120000B1120000B11200007712000026
:10124000B1120000B1120000B1120000AB12000098
:1012500000237B6132E000200121012200F04CF8E4
:1012600002237B612AE001200121012200F044F8E1
:1012700001237B6122E01E4800210122FFF7D8FBF9
:1012800003237B6101F096FDB860BA68124B9A4265
:101290000AD9124810210122FFF7CAFB154818216C
:1012A0000122FFF7C5FB09E008E004237B6105E0AC
:1012B0000B4840F62221FFF7B5FB09E03B697A694C
:1012C0001A6005E0064840F60631FFF7ABFB00BFA9
:1012D0002037BD4680BD00BF0048E80100400E40F9
:1012E0008C60000080400E4088400E4084400E40DC
:1012F000B0400E4000410E4080B586B000AF1346AE
:101300000246FA710A46BA717B71FB79042B3CD80C
:1013100001A252F823F000BF751300006313000010
:101320003F1300002D130000511300000123FB6048
:101330000223BB6001237B6100233B612BE004237C
:10134000FB600823BB6003237B6102233B6122E037
:101350001023FB602023BB6005237B6104233B61DA
:1013600019E04023FB608023BB6007237B610623D9
:101370003B6110E04FF48073FB604FF40073BB607F
:1013800009237B6108233B6105E0274840F68D5126
:10139000FFF748FB44E0BB79002B34D0234BFA68BD
:1013A0001A6600BF22483969FFF758FB0346002B35
:1013B000F8D07B79002B31D000BF1D487969FFF749
:1013C0004DFB0346002BF8D0FB79022B26D11948A0
:1013D0003021FFF759FB0346002B1FD100BF1448F3
:1013E0001721FFF73BFB0346002BF8D010481621CE
:1013F000FFF734FB0346002B10D10B4840F6AC51ED
:10140000FFF710FB0AE0094BBA681A6600BF0848EC
:101410003969FFF723FB0346002BF8D100F09CF954
:101420001837BD4680BD00BF8C60000000400E40F4
:1014300090400E4024400E4080B487B000AFF8606A
:10144000B9607A60FB6803F10473DA00BB68134487
:101450009B007B617B697A681A601C37BD465DF82A
:10146000047B704780B582B000AF0346FB71FB7907
:10147000034800211A46FFF7DFFF0837BD4680BD4D
:101480000CE0014080B582B000AF78600F4B7A6805
:10149000527902F03F025A600C4B7A68127811467A
:1014A0007A685278520011437A68D27892001143D8
:1014B0007A68127952010A431A607B689B78184651
:1014C000FFF7D0FF0837BD4680BD00BF00E00140F8
:1014D00080B500AF01F06EFC80BD00BF80B487B066
:1014E00000AFF860B9607A60FB6803F10473DA005A
:1014F000BB6813449B007B617B697A681A601C3768
:10150000BD465DF8047B704780B400AF034B0022FA
:10151000C3F88021BD465DF8047B704700400E4053
:1015200080B400AF044B45F60E02C3F88021BD46DF
:101530005DF8047B704700BF00400E4080B400AFF0
:10154000034B1B6DDBB21846BD465DF8047B70474C
:10155000B081E00F80B400AF054BDB6C03F47F0378
:101560001B0CDBB21846BD465DF8047B704700BF1C
:10157000B081E00F80B582B000AF394BD3F8803135
:1015800003F001037B60FFF7CBFF00233B60354B8B
:101590001B6803F001033A6813433B60314B1B683F
:1015A00003F010033A6813433B602E4B1B6803F0B3
:1015B00040033A6813433B602A4B1B6803F0040363
:1015C0003A6813433B60274B1B6803F480733A6807
:1015D00013433B60224B3A681A66234B1B8803F087
:1015E0000703032B04D0042B19D0022B23D02EE0A9
:1015F0001B4B5B6A03F00053002B0BD100BF184B51
:10160000D3F8903003F08003002BF8D0144B032262
:101610005A671CE01548C521FFF704FA17E000BF20
:101620000F4BD3F8903003F40073002BF8D00C4B21
:1016300004225A670BE000BF094BD3F8903003F047
:101640000803002BF8D0064B02225A6700BF7B68C4
:10165000002B01D0FFF758FF0837BD4680BD00BF03
:1016600000400E40DC000020E0000020DC600000B4
:1016700080B584B000AF0346FB71FB79002B12D01C
:101680000D4BDA6C0D4B1A600B4BDB6C23F47F4374
:10169000FB60FB6843F47743FB60074BFA68DA644E
:1016A00000F032F905E0044B044A1268DA6400F0F5
:1016B0002BF91037BD4680BD00300E40E8000020F9
:1016C00080B400AF064B1B78012B04D1054B1B6C7B
:1016D000034B02221A70BD465DF8047B704700BFC1
:1016E000D900002000300E4080B582B000AF034624
:1016F000FB71154BD3F89020144B1A60124BD3F8A2
:1017000094309AB2124B1A80124B124A126942F06C
:1017100004021A610120FFF7ABFFFFF7D1FF30BFD2
:101720000020FFF7A5FFFB79002B02D0FFF722FF77
:1017300007E0074B1B8803F00703012B01D0FFF7DD
:10174000C7FE0837BD4680BD00400E40DC000020CB
:10175000E000002000ED00E080B400AF074BD3F8BC
:101760009020074B1A60054BD3F894309AB2054B82
:101770001A80BD465DF8047B704700BF00400E40F4
:10178000DC000020E000002080B588B000AF2A4BCC
:10179000FB612A4BBB612A4B7B612A4B3B612A4B85
:1017A000FB602A4BBB602A4BD3F86C31B3F1FF3F8F
:1017B00037D0FB695B687B60FB691B683B603B68FB
:1017C0007A681A60BB695B687B60BB691B683B60B9
:1017D0003B687A681A607B695B687B607B691B6821
:1017E0003B603B687A681A603B695B687B603B6979
:1017F0001B683B603B687A681A60FB685B687B60CB
:10180000FB681B683B603B687A681A60BB685B6872
:101810007B60BB681B683B603B687A681A60012389
:1018200005E00C4840F2DA31FFF7FCF800231846D7
:101830002037BD4680BD00BF3880E00F4080E00FFC
:101840004880E00F5080E00F5880E00F6080E00F8C
:10185000B081E00FDC60000080B584B000AF254BA4
:10186000244AD26E42F08072DA66224B214A126F0D
:1018700022F007021A671F4B1E4A126E22F0C04266
:101880001A66FFF767FE0346FB733B1D184600F020
:1018900027FEFB7B0F2B02D9FB7B1B2B05D9FB7B88
:1018A000512B02D0FB7B532B20D17B79012B1DD1F7
:1018B0003B79022B1AD8104B1B78002B16D10F4BFB
:1018C0000E4A126842F001021A600A4B1B6EBB609E
:1018D000BA680B4B1340BB60BA680A4B1343BB603A
:1018E000044BBA681A66044B01221A701037BD46C1
:1018F00080BD00BF00300E40D900002044300E40B3
:10190000000F0EF0B4C0400B80B485B000AF184B90
:10191000DB6C03F470631B0AFB60164B1B881946D3
:10192000FB685A1C13469B001344B1FBF3F3013BC5
:10193000BB60FB685A1C13469B0013445022B2FB49
:10194000F3F3013B7B60BB681B06BB607B681B0538
:101950007B60074B064AD26C22F0EE61B8687A6869
:1019600002430A43DA641437BD465DF8047B7047CE
:1019700000300E40E200002080B582B000AF7860F9
:101980007B689AB2034B1A80FFF7BEFF0837BD464B
:1019900080BD00BFE200002080B584B000AF0346E8
:1019A0003960FB71FFF7CAFD0346FB72FB7A032B1C
:1019B00010D82D4BD3F87C31FB60FB79002B05D080
:1019C000FB6803F47F431B0AFB6030E0FB68DBB27B
:1019D000FB602CE0244BD3F88031FB603B68032B89
:1019E0001ED801A252F823F0F9190000011A0000D4
:1019F0000D1A0000191A0000FB68DBB2FB6016E04C
:101A0000FB6803F47F431B0AFB6010E0FB6803F4F0
:101A10007F031B0CFB600AE0FB681B0EFB6006E00B
:101A2000124840F28141FEF7FDFF002317E0FB68FA
:101A30001B03FB60FB6823F47043002B06D00B48AC
:101A400040F28B41FEF7EEFF002308E0084B084A06
:101A5000D26E22F47041FA680A43DA66012318460E
:101A60001037BD4680BD00BFB081E00FDC600000D4
:101A700000300E4080B582B000AF0346FB7100BF5E
:101A80000D4B9B6F03F00103002BF9D1FB79002B69
:101A90000CBF00230123DBB208480D211A46FFF7D3
:101AA0001DFD054B044A126C22F00301FA790A432A
:101AB0001A640837BD4680BD00300E4054300E40D9
:101AC00080B584B000AF7860474B7A6812789A632B
:101AD000454B9B6B03F00F027B681B789A4206D044
:101AE000424840F2C241FEF79DFF002378E0FFF735
:101AF0004BFE7B681B89C82B04D93C4840F2CB4184
:101B0000FEF790FF7B689A887B681B899A4204D90C
:101B1000364840F2CC41FEF785FF7B685B78012BAD
:101B200008D17B689B88C82B04D9304840F2D1414A
:101B3000FEF778FF7B68DB88642B04D92B4840F2E2
:101B4000D541FEF76FFF4FF08053FB607B68DB8869
:101B50000A2B01D80023FB60234A234BDB6C23F0C4
:101B6000405323F001037968C97A0846F9680143B4
:101B70000B43D364FFF770FE7B681B891846FFF7A1
:101B8000FBFE7B689B88184600F0E8F97B685A8862
:101B9000174B1A80164B1B8818460121012200F0B2
:101BA0002BF8034683F00103DBB2002B06D00F486D
:101BB00040F2F141FEF736FF002311E07B685B78CD
:101BC0001846FFF757FF7B689B7A002B0CBF00235A
:101BD0000123DBB2074805211A46FFF77FFC0123EA
:101BE00018461037BD4680BD00300E40DC60000056
:101BF000E40000203C300E4080B58EB000AF78602D
:101C000013460A46FA70BB700023FB620023BB62D6
:101C10000023FB6100237B6200233B62002387F8E3
:101C20003730A94B9B6B03F00F03022B13D17B685A
:101C3000B3F5966F06D37A6840F6B8339A4201D866
:101C4000012300E0002387F8373097F8373003F09E
:101C5000010387F8373097F8373083F00103DBB2A0
:101C6000002B06D0994840F22951FEF7DBFE0023F5
:101C70006DE1002387F8363063E197F83630002BAA
:101C800005D1FB7883F00103DBB2002B09D197F873
:101C90003630012B06D1BB7883F00103DBB2002B79
:101CA00000D049E197F83630002B01D0884B00E096
:101CB000884BBB6197F83630002B01D0082300E039
:101CC00001237B617B68B3F5E16F94BF002301239F
:101CD000FB74FB7C002B0ED04FF4E1637B6240F67B
:101CE000B8333B6297F83630002B01D0022300E076
:101CF00001233B6307E04FF496637B624FF4E1639B
:101D00003B6200233B6397F83630002B1CD0FB7CF2
:101D1000002B0CD0704BD3F86831FB62FB6A1B0EB2
:101D2000BB62FB6A03F47F031B0CFB62BFE06A4BE0
:101D3000D3F86831FB62FB6A03F47F431B0ABB6282
:101D4000FB6ADBB2FB62B2E05F4BDB6C03F040533B
:101D5000FB603B6B03F04053002B04D05B4840F228
:101D60006551FEF75FFE3A6BFB6813435B4A934293
:101D700028D05A4A934207D8012B16D0012B48D3BA
:101D8000B3F1805F52D078E0554A934227D0544A4D
:101D9000934203D8B3F1005F55D06EE0B3F1405FDA
:101DA0005ED0504A934227D067E04B4BD3F8743152
:101DB000FB62FB6A03F47F431B0ABB62FB6ADBB274
:101DC000FB6260E0444BD3F87431FB62FB6A1B0E8C
:101DD000BB62FB6A03F47F031B0CFB6253E03E4BC8
:101DE000D3F87831FB62FB6A03F47F431B0ABB62C2
:101DF000FB6ADBB2FB6246E0374BD3F87831FB621B
:101E0000FB6A1B0EBB62FB6A03F47F031B0CFB62C5
:101E100039E0314BD3F86C31FB62FB6A03F47F434A
:101E20001B0ABB62FB6ADBB2FB622CE02A4BD3F8D5
:101E30006C31FB62FB6A1B0EBB62FB6A03F47F031F
:101E40001B0CFB621FE0244BD3F87031FB62FB6A72
:101E500003F47F431B0ABB62FB6ADBB2FB6212E046
:101E60001D4BD3F87031FB62FB6A1B0EBB62FB6A31
:101E700003F47F031B0CFB6205E0144840F2A951F8
:101E8000FEF7D0FD00BFFB681B0FFA7C1046194619
:101E9000FFF782FD034683F00103DBB2002B06D07F
:101EA0000A484FF4B661FEF7BDFD00234FE0FB6A20
:101EB000FF2B19D1BB6AFF2B16D1044840F2BA514F
:101EC000FEF7B0FD002342E000300E40DC60000071
:101ED0005C300E4064300E40B081E00F0100001015
:101EE00001000020010000307A687B6AD31AB96AC9
:101EF000FA6A8A1A02FB03F2396A7B6ACB1AB2FBCE
:101F0000F3F3FB61FA69FB6A1344FB61FA69BB6A8C
:101F10009A4203D8FA69FB6A9A4206D20E4840F206
:101F2000C651FEF77FFD002311E07B69FA699A40F4
:101F30003B6B1A43BB691A6097F83630013387F858
:101F4000363097F83630012B7FF697AE01231846CE
:101F50003837BD4680BD00BFDC60000080B584B06E
:101F600000AF78600023FB60344B1B6F03F0070366
:101F7000BB60324BDB6C03F00103002B15D0BB6858
:101F8000012B12D97B68132B02D80423FB600BE0D2
:101F90007B68132B05D97B68272B02D80823FB60AD
:101FA00002E01023FB6033E032E0244BDB6C03F0F3
:101FB0000103002B15D1BB68012B12D87B68092BBC
:101FC00002D80423FB600BE07B68092B05D97B68F2
:101FD000132B02D80823FB6002E01023FB6017E0FC
:101FE00016E0164BDB6C03F00103002B0BD0BB6833
:101FF000012B08D87B68272B02D80823FB6007E059
:102000001023FB6004E00E4840F20F61FEF70AFD6A
:10201000FB68013BFB60FB681A02FB681B03134370
:10202000FB60064B054AD26C22F47F41FA680A43F2
:10203000DA64FFF769FC1037BD4680BD00300E4002
:10204000DC60000080B487B000AFF860B9607A60EF
:10205000FB6803F10473DA00BB6813449B007B61E7
:102060007B697A681A601C37BD465DF8047B70474F
:1020700080B485B000AF786039607B6803F1C063DD
:10208000FB60FB683A681A601437BD465DF8047B54
:10209000704700BF80B485B000AF786039607B685E
:1020A00003F18063FB60FB683A681A601437BD4631
:1020B0005DF8047B704700BF80B584B000AFF86066
:1020C000B9607A60F868B968FFF7E4FFF868796882
:1020D000FFF7CEFF1037BD4680BD00BF80B582B090
:1020E00000AF03463960FB71FB79002B1DD0FB79F3
:1020F000012B17D0FB79022B11D0FB79032B0BD0CE
:10210000FB79042B06D0FB79052B01D1FF230DE0D1
:1021100000230BE0002309E04FF47E4306E04FF478
:102120007C6303E04FF4784300E03F233A681341B7
:1021300003F00103002B04D10B484FF42F71FEF77D
:1021400071FCFA7913465B0013441B010C3303F155
:10215000804303F52043184639680022FFF772FFD9
:102160000837BD4680BD00BF2C61000080B582B03D
:1021700000AF03463960FB71FB79002B1DD0FB7962
:10218000012B17D0FB79022B11D0FB79032B0BD03D
:10219000FB79042B06D0FB79052B01D1FF230DE041
:1021A00000230BE0002309E04FF47E4306E04FF4E8
:1021B0007C6303E04FF4784300E03F233A68134127
:1021C00003F00103002B04D10B4840F2EB21FEF792
:1021D00029FCFA7913465B0013441B010C3303F10D
:1021E000804303F52043184639680122FFF72AFF90
:1021F0000837BD4680BD00BF2C61000080B584B0AB
:1022000000AF39600146F971BA717B71FB79002B1F
:102210001DD0FB79012B17D0FB79022B11D0FB7954
:10222000032B0BD0FB79042B06D0FB79052B01D1B6
:10223000FF230DE000230BE0002309E04FF47E4371
:1022400006E04FF47C6303E04FF4784300E03F2363
:102250003A68134103F00103002B03D12348B02156
:10226000FEF7E0FB3B68072B10D83B689B000F2272
:1022700002FA03F31A46F9793B689B0001FA03F36B
:102280001B4811461A46FFF717FF12E03B68083B50
:10229000FB60FB689B000F2202FA03F31A46F979F0
:1022A000FB689B0001FA03F3124811461A46FFF738
:1022B00003FFBB79104839681A46FFF7C3FE7B79E4
:1022C0000E4839681A46FFF7BDFE0D4B3A680121EA
:1022D00001FA02F2C3F824243B7E0A4839681A4600
:1022E000FFF7B0FE1037BD4680BD00BF8061000023
:1022F00000A4004004A4004010A4004014A4004026
:1023000000A0004028A4004080B584B000AFB960B0
:102310007B600346FB731346BB73FB7B002B1DD016
:10232000FB7B012B17D0FB7B022B11D0FB7B032BFC
:102330000BD0FB7B042B06D0FB7B052B01D1FF23AD
:102340000DE000230BE0002309E04FF47E4306E09C
:102350004FF47C6303E04FF4784300E03F23BA6816
:10236000134103F00103002B03D13148E721FEF7AD
:1023700059FBBB7B002B0DD07B68002B05D0FB7B72
:102380001846B968FFF7F2FE04E0FB7B1846B9680F
:10239000FFF7A4FEBB68072B18D8FA7B13465B0037
:1023A00013441B01043303F1804303F52043BA684F
:1023B00092000F2101FA02F21146B87BBA6892002E
:1023C00000FA02F21846FFF777FE1DE0FA7B13468B
:1023D0005B0013441B01083303F1804303F52043E2
:1023E000BA6802F18042083A92000F2101FA02F223
:1023F0001146B87BBA6802F18042083A920000FAAE
:1024000002F21846FFF758FEBB7B002B0DD17B680C
:10241000002B05D0FB7B1846B968FFF7A7FE04E048
:10242000FB7B1846B968FFF759FE1037BD4680BDE3
:102430008061000080B487B000AFF860B9607A6056
:10244000FB6803F10473DA00BB6813449B007B61F3
:102450007B697A681A601C37BD465DF8047B70475B
:1024600080B582B000AF0346FB71FB7903480021C1
:102470001A46FFF7DFFF0837BD4680BD0020044045
:1024800080B483B000AF7860144B7A68127811463C
:102490007A685278920011437A6892781201114357
:1024A0007A68D278520111437A6812791202114384
:1024B0007A685279120311437A689279D2031143F0
:1024C0007A68D279120411437A68127A52040A4364
:1024D0001A600C37BD465DF8047B7047002004404D
:1024E00080B584B000AF78607B68002B03D11A48B8
:1024F0003E21FEF797FA194B5B69DBB203F00F033D
:10250000DBB29B00FB73154B1B6903F0C0039B09F7
:10251000DAB2FB7B1343FB737B68FA7B9A700F4B39
:102520001B69DBB203F03F03DAB27B685A700B4BD6
:102530009B69DBB223F00F03FB73084BDB6903F0ED
:10254000F0031B09DAB2FB7B1343FB737B68FA7B56
:102550001A701037BD4680BDD0610000D0FF0FE07B
:1025600080B586B000AFF860B9607A60FB707B68B8
:10257000002B03D14248AB21FEF754FABB68002B75
:1025800003D14048FEF724FCB860FB78202B15D01F
:10259000202B02DC002B05D037E0402B1AD0602B1B
:1025A00027D032E0BB681A097B689A4203D23448CC
:1025B000D321FEF737FA10237B612BE0BB68DA08E2
:1025C0007B689A4203D22E48D821FEF72BFA0823C3
:1025D0007B611FE0BA682C4BA3FB02139A087B684F
:1025E0009A4203D22648DD21FEF71CFA06237B61BE
:1025F00010E0BB689A087B689A4203D22048E22127
:10260000FEF710FA04237B6104E01D48E821FEF781
:1026100009FA31E0BB685A017B69796801FB03F371
:102620005B0813443B617B697A6802FB03F33A69F8
:10263000B2FBF3F33B613B69203B3B613B69DB0051
:102640003B613A69114B9A4203D90D48FE21FEF7CE
:10265000E9F93A690D4B13403B61FB681B6823F0B5
:102660006002FB681A60FB681A68FB781A43FB6813
:102670001A60FB683A695A611837BD4680BD00BFD1
:102680002462000040410500ABAAAAAAF8FF7F001F
:1026900080B584B000AF78600B46FB707A680E4B53
:1026A0009A4208D07A680D4B9A4204D00C484FF4F5
:1026B0000971FEF7B7F9FB78DB43FB60FB6803F0B9
:1026C0000503FB60FB685A007B68DA60FA787B6878
:1026D000DA601037BD4680BD0000014000040140B3
:1026E0002462000080B582B000AF786039607A68FB
:1026F0002B4B9A4208D07A682A4B9A4204D02A4837
:102700004FF41371FEF78EF9786800F04FF83B68CC
:102710009B7C002B05D07B681B6843F080427B6864
:102720001A603B68DB7C002B07D03B681B7D63F0A5
:102730007F03DBB21A467B689A653B685B7B1A466F
:102740003B681B8A1A433B68DB891A437B685A60E3
:102750003B6859683B689A683B681B7B7868FFF761
:10276000FFFE3B689B7D1B0703F0E0423B68DB7D7F
:102770001B0503F4E0031A437B681A663B685B7D24
:10278000002B05D07B681B6843F480327B681A609D
:102790003B681B781A467B68DA600837BD4680BD07
:1027A00000000140000401402462000080B582B0B6
:1027B00000AF78607A68204B9A4208D07A681F4B45
:1027C0009A4204D01E4840F27131FEF72BF97B6823
:1027D00040F6AA62DA607B6800221A607B6841F2E8
:1027E00005025A607B6800229A607B6800225A6169
:1027F0007B680022DA647B68124A9A647B68002254
:102800005A677B6800229A677B680022DA677A68D9
:10281000094B9A4202D17B6800221A657B6800222C
:102820009A657A68054B9A4202D17B680022DA6584
:102830000837BD4680BD00BF0000014000040140D4
:1028400024620000F9FF010080B483B000AF78601B
:1028500000BF7B681B6903F08003002BF9D07B6805
:10286000DB69DBB218460C37BD465DF8047B704768
:1028700080B483B000AF78600B46FB7000BF7B680C
:102880001B6903F04003002BF9D0FA787B685A6388
:102890000C37BD465DF8047B704700BF80B483B041
:1028A00000AF7860002318460C37BD465DF8047B06
:1028B000704700BF80B483B000AF7860FEE700BF10
:1028C00080B483B000AF786039603B684FF4005249
:1028D0005A60002318460C37BD465DF8047B7047EC
:1028E00080B483B000AF7860012318460C37BD4632
:1028F0005DF8047B704700BF80B485B000AFF8601E
:10290000B9607A60002318461437BD465DF8047B31
:10291000704700BF80B586B000AFF860B9607A60DC
:1029200000237B6111E000F0BDF938613B69B3F130
:10293000FF3F09D0BB685A1CBA603A69D2B21A701C
:102940007B6901337B6100E004E07B685A1E7A609A
:10295000002BE8D17B69002B02DC4FF0FF3300E055
:102960007B6918461837BD4680BD00BF90B585B05D
:1029700000AF7860184B1B68002B02D1164B174A2A
:102980001A60154B1B68FB60134B1A687B681A446E
:10299000EFF308831C4623469A4212D9104B1B685A
:1029A0009B68184600F0B0FA04460E4800F00DFD92
:1029B000034620460B491A4600F016F8012000F0A5
:1029C0008FFA054B1A687B681A44034B1A60FB6840
:1029D00018461437BD4690BDF0000020300100209D
:1029E000740000207462000080B586B000AFF8600B
:1029F000B9607A6000237B6109E0BB685A1CBA6049
:102A00001B78184600F08AF97B6901337B617A698B
:102A10007B689A42F1DB7B6818461837BD4680BD5B
:102A200080B483B000AF0346FB71084B97F90720D1
:102A30005209F97901F01F01012000FA01F143F870
:102A400022100C37BD465DF8047B704700E100E0C2
:102A500080B483B000AF0346FB71094B97F90720A0
:102A60005209F97901F01F01012000FA01F16032E9
:102A700043F822100C37BD465DF8047B704700BF59
:102A800000E100E080B400AF72B6084B1B68B3F100
:102A9000FF3F04D0054B1B685A1C044B1A60034BC4
:102AA0001B681846BD465DF8047B7047EC000020AB
:102AB00080B483B000AF0C4B1B68002B0DD00A4BC9
:102AC0001B685A1E084B1A60074B1B687B607B68AB
:102AD000002B00D162B67B6800E0002318460C375B
:102AE000BD465DF8047B7047EC00002080B483B0E5
:102AF00000AF786039607B683A689A640C37BD46ED
:102B00005DF8047B704700BF80B483B000AF78608D
:102B100039607B68DA6C3B681A437B68DA640C378F
:102B2000BD465DF8047B704798B500AF164B1B6936
:102B300003F08003002B26D0144B1C681248FFF7CB
:102B400083FE03461A46124B1A55104B1B685A1C3B
:102B50000E4B1A600F4B1B685A1C0E4B1A600B4B26
:102B60001B68082B02D1094B00221A60094B1B6815
:102B7000082B08DD054B00221A60064B00221A6064
:102B8000054B00221A6098BD00000140F8000020AB
:102B900000010020FC000020F400002080B483B07D
:102BA00000AF78607B68002B03D0064B01221A70BF
:102BB00002E0044B00221A700C37BD465DF8047B1E
:102BC000704700BF08010020B0B588B000AF2E48A4
:102BD0000121FEF791F82D480121FEF78DF8002024
:102BE000002104220123FFF78FFB00200121012295
:102BF0000023FFF789FB264BFB61264B3C1D1D463E
:102C00000FCD0FC495E8030084E8030000200521E0
:102C100004220123FFF778FB1F480121FEF76CF81F
:102C200000233B713B1DF8691946FFF75BFDFB690B
:102C300003225A67FB699B6F23F4F85323F01F03A9
:102C4000FA69936712480421FFF750FF0B20FFF742
:102C5000FFFE0F480421FFF757FF0B20FFF7E0FEB0
:102C6000F8690521FFF714FD0C4B1B689B6818469B
:102C700000210222002300F0DDFA094B01221A7024
:102C80002037BD46B0BD00BF40410500002508000B
:102C90000000014090620000002204007400002047
:102CA0000901002080B582B000AF4FF0FF337B6098
:102CB000164B1B7883F00103DBB2002B01D0FFF72A
:102CC00083FFFFF7DFFE124B1B68002B16DD114B55
:102CD0001B68114AD35CDBB27B600E4B1B685A1C2D
:102CE0000C4B1A600B4B1B68082B02D1094B0022BE
:102CF0001A60074B1B685A1E054B1A60FFF7D8FE77
:102D00007B6818460837BD4680BD00BF090100201A
:102D1000FC000020F40000200001002080B582B0FB
:102D200000AF0346FB71144B1B7883F00103DBB249
:102D3000002B01D0FFF748FF104B1B78002B06D06B
:102D4000FB790A2B03D10E480D21FFF791FDFB798A
:102D50000B481946FFF78CFD084B1B78002B06D05B
:102D6000FB790D2B03D106480A21FFF781FDFB7982
:102D700018460837BD4680BD090100200801002023
:102D800000000140064880470649074A074B9A421F
:102D9000BEBF51F8040B42F8040BF8E7FDF7BEF98B
:102DA000812E00007C64000000000020BC00002098
:102DB000FEE700BF80B582B000AF00F027F8786072
:102DC0000A4BD3F808210A4B13401B0A3B603B68AF
:102DD00001337A68B2FBF3F37B60064B7A681A60C2
:102DE0007B6818460837BD4680BD00BF00400E40D6
:102DF00000FF01002401002080B400AF024B184600
:102E0000BD465DF8047B7047005A620280B483B00F
:102E100000AF114BD3F8943003F00703032B08D015
:102E2000042B02D0022B08D00BE00C4B1B687B60FC
:102E30000BE04FF400437B6007E0094B1B687B60AD
:102E400003E0084B1B687B6000BF7B6818460C37AB
:102E5000BD465DF8047B704700400E400C0000202A
:102E6000080000201000002080B400AF034B1B6856
:102E70001846BD465DF8047B704700BF080000207F
:102E800080B400AF054B054AD2F8882042F47002A6
:102E9000C3F88820BD465DF8047B704700ED00E074
:102EA00080B400AF4FF400431846BD465DF8047B84
:102EB000704700BF80B400AF4FF47A731846BD4628
:102EC0005DF8047B704700BF80B400AF034B1B6804
:102ED0001846BD465DF8047B704700BF0C0000201B
:102EE00008B5074B044613B10021AFF30080054B32
:102EF0001868836A03B198472046FFF7DBFC00BFE0
:102F0000000000000C630000124B70B51D68044601
:102F10001E4625B1AA6912B9284600F077F80E4B73
:102F20009C4201D16C6808E00C4B9C4201D1AC681A
:102F300003E00B4B9C4208BFEC68B4F90C3013B1B2
:102F4000B4F90E0070BD336809221A604FF0FF30EB
:102F500070BD00BF74000020A8620000C8620000BD
:102F6000E8620000F8B5074600F1480494B1A5688E
:102F70006668013E0CD4AB89012B07D9B5F90E3038
:102F8000013303D03846294601F02AFF6835F0E7BF
:102F90002468EBE7F8BD0000002310B50446036089
:102FA0004360836081814366C281036143618361C1
:102FB00019465C30082200F0B9F8054B6362054BF6
:102FC000A362054BE362054B2462236310BD00BF7F
:102FD00045330000673300009F330000C333000017
:102FE00070B54B1E68255D430E4605F1740100F077
:102FF000A5F8044640B1002180E842000C30A060F2
:1030000005F1680200F092F8204670BD836910B5A2
:10301000044633BB8364C3640365124B124A1B68C6
:103020008262984204BF0123836100F01FF8606050
:10303000204600F01BF8A060204600F017F804219D
:10304000E06000226068FFF7A7FFA0680921012265
:10305000FFF7A2FFE06812210222FFF79DFF012384
:10306000A36110BD0C630000652F0000F8B51B4B79
:103070001E68B369074613B93046FFF7C7FF4836E5
:10308000B4687368013B04D4B4F90C5075B168346A
:10309000F8E733682BB938460421FFF7A1FF306009
:1030A00008B13668ECE70C233B60F8BD4FF6FF73C0
:1030B000E3810123A38165662560A56065602561C4
:1030C0006561A56104F15C002946082200F02EF834
:1030D0006563A563A564E5642046F8BD0C63000044
:1030E00070B50E4B0E4DED1AAD1000241E46AC42CD
:1030F00004D056F8242090470134F8E702F022FF6C
:10310000084D094BED1AAD1000241E46AC4204D008
:1031100056F8242090470134F8E770BDB000002035
:10312000B0000020B4000020B0000020024403469C
:10313000934202D003F8011BFAE7704770B5CD1C2B
:1031400025F0030508350C2D38BF0C25002D06464B
:103150003FDB8D423DD3214B1C6818462146A1B16F
:103160000B685B1B0ED40B2B03D90B60CC18CD5016
:103170001FE08C4202D1626802601AE04B68636013
:103180000C4616E00C464968E9E7154C23681BB964
:10319000304600F03FF820602946304600F03AF80B
:1031A000431C014615D0C41C24F0030484420AD1F8
:1031B000256004F10B00231D20F00700C31A0BD07B
:1031C0005A42E25070BD3046611A00F023F80130D7
:1031D000EED10C233360002070BD00BF1001002031
:1031E0000C0100200FB40A4B13B51C6824B1A3696D
:1031F00013B92046FFF70AFF05AB2046A168049AE1
:10320000019300F013F902B0BDE8104004B070471C
:103210007400002038B5064C00230546084623609C
:10322000FFF7A4FB431C02D1236803B12B6038BD18
:10323000280100202DE9F0411E463D4B1D68044643
:103240000F46904625B1AB6913B92846FFF7DEFE5D
:10325000384B9C4201D16C6808E0374B9C4201D14D
:10326000AC6803E0354B9C4208BFEC68B8F1020F34
:1032700059D8002E57DB2846214601F0B1FD002326
:103280006360A361A3891B0603D52846216902F068
:1032900045F9A389B8F1020F23F08303A38112D06B
:1032A00037BB002E08BF4FF48066304601F026FE83
:1032B0000746C8B94FF4806001F020FE074688B980
:1032C0004FF0FF3000E00020A38943F00203A38108
:1032D0000023A36004F1470323602361012363619A
:1032E000BDE8F0814FF48066A38943F08003A38199
:1032F000B8F1010F05D1A38943F00103A381734203
:10330000A3610F4BAB62A389276003F0080080B272
:103310002761666148B113F0030F18BF0026A6604D
:103320000020BDE8F0814FF0FF30BDE8F08100BF24
:1033300074000020A8620000C8620000E86200007B
:10334000652F000010B50C46B1F90E1002F02AF9F5
:10335000002803DB636D0344636510BDA38923F478
:103360008053A38110BD2DE9F0411D468B89DB05FB
:1033700007460C46164605D5B1F90E100022022369
:1033800001F05CFDA389B4F90E1023F48053A381EE
:10339000384632462B46BDE8F04100F0C7BD10B5B7
:1033A0000C46B1F90E1001F049FD431CA38903D16D
:1033B00023F48053A38110BD43F48053A38160653F
:1033C00010BDB1F90E1000F031BE034613F8012B09
:1033D000002AFBD1181A013870479368013B002B73
:1033E00010B5936005DA9469A34208DBCBB20A2BCF
:1033F00005D01368581C10601970C8B210BDBDE824
:10340000104000F03FBDF8B505460E461446D718EB
:10341000BC4208D0284614F8011B3246FFF7DDFFF6
:10342000431CF5D100E00020F8BD00002DE9F04379
:103430009DB00D4617460393064618B183690BB934
:10344000FFF7E4FD734B9D4201D1756808E0724BB4
:103450009D4201D1B56803E0704B9D4208BFF568FD
:10346000AB8918070AD52B6943B1002309932023A0
:103470008DF8293030238DF82A3038E0304629463F
:1034800000F066FD0028F0D04FF0FF30BFE0039A57
:10349000111D12680391002A70DB07920134237812
:1034A0002E2B7DD05E4F21783846032201F02EFD71
:1034B00030B1C71B049B4020B84003430493013440
:1034C000217858488DF828100622671C01F01EFD4F
:1034D000002800F08A80544B002B7DD1039B0733DA
:1034E00023F0070308330393099B434409933B46A6
:1034F0001C4613F8012B1AB9B4EB07090ED002E0F1
:10350000252AF5D1F8E7304629463A464B46FFF7DB
:103510007AFF013076D0099B4B4409932378002B26
:1035200070D000234FF0FF32049307930592069367
:103530008DF853301A9304F101094C463B4F217822
:103540003846052201F0E2FC09F10109049B28B18B
:10355000C71B0120B84003430493EEE7D90644BFDC
:1035600020228DF853201A0744BF2B228DF85320B8
:1035700022782A2A8BD0079B214605E0524243F04D
:1035800002030792049389E70C4601312278303A0E
:10359000092A03D80A2000FB0323F5E707937EE7F7
:1035A00063782A2B0AD1039B1A1D1B680392002BF8
:1035B00004F10204B8BF4FF0FF330BE0611C00239D
:1035C0000C4601312278303A092A03D80A2000FB40
:1035D0000323F5E7059365E703AB0093304604A9A1
:1035E0002A46134B00F0BAF807E003AB00933046CD
:1035F00004A92A460E4B00F031FBB0F1FF3F804694
:103600007FF472AFAB895B063FF53EAF09981DB002
:10361000BDE8F083A8620000C8620000E862000014
:10362000166300001A6300005D370000106300009D
:10363000073400002DE9F04788B0002B14461D46E2
:10364000109E1299139F05DA05F100431D4614469A
:103650002D2300E000230B70149B23F0200ABAF105
:10366000460F04D0BAF1450F03D1013601E0032320
:1036700000E002238DE8C80006AB039307AB049378
:1036800022462B4600F070FDBAF1470F804602D16A
:10369000119BDB0725D5BAF1460F08EB06090FD1C0
:1036A00098F80030302B09D120462946002200230B
:1036B00002F0EEFB10B9C6F101063E603B6899448A
:1036C000204629460022002302F0E2FB08B1CDF893
:1036D0001C90079B4B4504D25A1C079230221A704B
:1036E000F7E7079BC8EB0302159B40461A6008B03A
:1036F000BDE8F087034673B5002903F8022B03DA0F
:1037000049421A462D2401E01A462B240929447007
:103710001ADD0DF106040A2691FBF6F506FB1511DC
:103720003031092D234604F801192946F3DC05F14F
:10373000300103F8011D0DF107018B420AD213F885
:10374000011B02F8011BF6E730241A46214402F857
:10375000024B5970101A02B070BD00002DE9F04FF5
:103760008FB00C4616461F46DDF86090054601F006
:1037700061FBD0F800A05046FFF727FE00230C9312
:10378000D9F800300990073323F00703D3E900018B
:1037900003F1080294F81880C9F80020C4E9120166
:1037A00001F012FF0128D4E9120117D100220023F1
:1037B00002F078FB10B12D2384F84330904B914AEE
:1037C000B8F1470F8CBF91469946032323612368C4
:1037D00023F0040323604FF0000B86E001F0F4FEB9
:1037E000236848B9884A8949B8F1470F8CBF894690
:1037F000914603222261EBE76268511C28F0200BFE
:1038000001D1062204E0BBF1470F02D10AB901221F
:1038100062606068CDF8108043F480618DE8030039
:103820000DF12B0002900BA803900CA8059000202E
:1038300021600690D4E912232846FFF7FBFEBBF176
:10384000470F81460B9909D1C81C02DB6368994276
:1038500030DDA8F102085FFA88F802E0B8F1650FE0
:1038600012D80139424604F150000B91FFF742FF94
:103870000C9A8318012A8346236102DC2268D2074E
:103880002DD5013323612AE0B8F1660F14D1002948
:10389000636807DD216113B92268D0071CD50133A5
:1038A0000B4418E013B92268D20701D5023312E0A5
:1038B000012310E04FF067080C9A914205DB236862
:1038C0002161D80708D54B1C05E00029D4BFC1F100
:1038D0000203012313442361A1654FF0000B9DF8FF
:1038E0002B3013B12D2384F843300097284621460E
:1038F0000DAA334600F040F9013002D14FF0FF30FD
:1039000036E123685A0504D4284631464A462369DD
:1039100008E1B8F1650F40F2CB80D4E91201002232
:10392000002302F0B5FA00282AD028463146384A4A
:103930000123B8470130E1D00C9B0B9A9A4207DB78
:103940002368D80704D423689B0700F1F880FDE0C2
:10395000284631465246099BB8470130CED04FF039
:1039600000080C9B013B9845EDDA2846314604F1EE
:103970001A020123B8470130C0D008F10108F0E76E
:103980000B9B002B28DC28463146214A0123B847EF
:103990000130B3D00B9B23B90C9B13B92368D90713
:1039A000D1D5284631465246099BB8470130A5D0AB
:1039B0004FF000080B9B5B4298452846314608DAD9
:1039C00004F11A020123B847013097D008F1010829
:1039D000F0E74A460C9BA5E0A36D0C9A9A42B4BF4F
:1039E00093469B46BBF1000F02DC4FF000081CE041
:1039F000284631464A465B46B8470130F5D17DE757
:103A00002163000025630000296300002D6300008E
:103A1000316300002846314604F11A020123B847F9
:103A200001303FF46BAF08F10108A36D2BEAEB7294
:103A30009A1A9045EEDB09EB03080B9A0C9B9A420D
:103A40000FDB2368DA070CD40C9B0B9A9944C8EB64
:103A500009099B1A9945A8BF9946B9F1000F08DCDE
:103A60000FE0284631465246099BB8470130EBD15A
:103A700044E72846314642464B46B84701303FF4BA
:103A80003DAF4FF000080AE02846314604F11A0223
:103A90000123B84701303FF431AF08F101080B9B17
:103AA0000C9A29EAE971D31A5B1A9845ECDB4AE7CC
:103AB0000C9A012A01DCDB0739D5284631464A46F3
:103AC0000123B84701303FF419AF2846314652462A
:103AD000099BB84701303FF411AFD4E9120100222D
:103AE000002302F0D5F910B14FF0000811E00C9B53
:103AF0002846314609F10102013B1CE028463146C7
:103B000004F11A020123B84701303FF4F7AE08F17F
:103B100001080C9B013B9845F0DB2846314604F137
:103B200050025B46B84701307FF40DAFE6E6284609
:103B300031464A460123B8470130EED1DEE64FF068
:103B40000008E2680D9BD31A984505DBE0680D9BE1
:103B50009842B8BF18460BE02846314604F11902D6
:103B60000123B84701303FF4C9AE08F10108E8E786
:103B70000FB0BDE8F08F00BF2DE9F84315461F4692
:103B80008A680B69DDF820809A42A8BF13462B6033
:103B900091F8432006460C460AB101332B60236896
:103BA000990602D52B6802332B60236813F00609AF
:103BB0001DD094F843302268003318BF01239206C9
:103BC0001FD5E1185A1C302081F84300224494F894
:103BD000451082F84310023313E03046394604F1B1
:103BE00019020123C047013007D009F10109E26839
:103BF0002B68D31A9945F0DBDBE74FF0FF30BDE8C7
:103C0000F8833046394604F14302C0470130F4D00E
:103C100023682A68E16803F00603042B08BFC2EB9F
:103C200001052369A2680CBF25EAE57500259A42C3
:103C3000C4BFC3EB0203ED184FF00009A9450ADA2F
:103C40003046394604F11A020123C0470130D4D06E
:103C500009F10109F2E70020BDE8F8832DE9FF47EB
:103C60000E7E0C9D6E2E80460C4691469A4601F1C2
:103C7000430000F0A58011D8632E22D009D8002E71
:103C800000F0AF80582E40F0BF8081F845607B4A3D
:103C90004FE0642E1ED0692E1CD0B5E0732E00F0CC
:103CA000A48009D86F2E2BD0702E40F0AD800B6809
:103CB00043F020030B6038E0752E21D0782E34D0ED
:103CC000A2E02B681A1D1B682A6001F1420781F8E7
:103CD00042309DE022682B6812F0800F03D01A1D3D
:103CE0002A601D6805E05106F9D51A1D2A60B3F94E
:103CF0000050002D39DA2D236D4284F8433034E032
:103D000022682B6812F0800F03D01A1D2A601D68EC
:103D100004E05206F9D51A1D2A601D88237E574AF1
:103D20006F2B14BF0A2308231BE07823544A84F81E
:103D300045302368296813F0800F01F104062E60D6
:103D400001D00D6802E05F06FBD50D88DE0744BF99
:103D500043F0200323601DB9236823F02003236070
:103D60001023002184F8431001E0444A0A236668C6
:103D7000A660002E03DB216821F00401216005B953
:103D80006EB104F14201B5FBF3F603FB16550F4685
:103D9000555D01F801593546002EF4D100E0074683
:103DA000082B0AD12368DD0707D5626823699A4288
:103DB00003DC302307F8013C013FC01B20612CE0ED
:103DC00009682B68626911F0800F04D0191D296001
:103DD0001B681A6005E04906F8D5191D29601B68A3
:103DE0001A8000232361074617E02B681A1D2A60FA
:103DF0001F683846FFF7E9FA63682061984288BF78
:103E000023612369636005E004F1420784F842609E
:103E100001232361002384F84330CDF800A04046FD
:103E2000214603AA4B46FFF7A7FE013002D14FF00F
:103E3000FF301FE0404649463A462369D0470130EB
:103E4000F5D023689B0705D4E068039B9842B8BF70
:103E500018460FE00025E268039BD31A9D42F3DA6F
:103E60004046494604F119020123D0470130DED013
:103E70000135F0E704B0BDE8F08700BF3363000010
:103E80004463000070B50E461446054618B18369B8
:103E90000BB9FFF7BBF8224B9C4201D16C6808E0DC
:103EA000204B9C4201D1AC6803E01F4B9C4208BFF1
:103EB000EC68A369A360A3891A0709D523693BB1FC
:103EC00023692068C01A63699842F6B20FDB08E0E4
:103ED0002846214600F03CF80028F1D04FF0FF3092
:103EE00070BD2846214600F07BFF0028F6D1A3686C
:103EF000013BA36023685A1C22601E706369013075
:103F0000984204D0A389DB0707D50A2E05D128469D
:103F1000214600F065FF0028E0D1304670BD00BFAB
:103F2000A8620000C8620000E862000038B5074CD3
:103F3000054600202060084611461A46FEF754FD4B
:103F4000431C02D1236803B12B6038BD2801002037
:103F5000324B70B51D6806460C4625B1AB6913B9E6
:103F60002846FFF753F82E4B9C4201D16C6808E0BD
:103F70002C4B9C4201D1AC6803E02B4B9C4208BF08
:103F8000EC68A28993B2190720D4DD0605D4092371
:103F900042F040023360A2813BE0580712D5616BCA
:103FA00041B104F14403994202D0304601F0B6FA1F
:103FB00000236363A38923F02403A38100236360A8
:103FC00023692360A38943F00803A38123694BB9C4
:103FD000A38903F42073B3F5007F03D03046214654
:103FE00000F03EFFA38913F0010205D00022A26079
:103FF00062695242A26103E0990758BF6269A260F8
:1040000022694AB903F0800080B230B143F0400326
:10401000A3814FF0FF3070BD002070BD7400002000
:10402000A8620000C8620000E862000038B5064CD3
:104030000023054608462360FEF730FC431C02D1EE
:10404000236803B12B6038BD280100202DE9F74F0C
:1040500003690C69A3428046C0F28180013C01F1F2
:104060001407A20000F114059146009257F824604D
:104070002A44019255F824200136B2FBF6F6B944E1
:10408000002E3AD04FF0000E3A462846F34652F83A
:1040900004CB03681FFA8CFA4FEA1C4C0AFB06EAB1
:1040A0000CFB06FC0CEB1A4C1FFA8AFACAEB0B0A43
:1040B0004FEA1C4E1FFA8CFC1AFA83FACCEB134C15
:1040C0000CEB2A4C1FFA8AFA4AEA0C4A4A454FEA94
:1040D0002C4B40F804ABDAD9009AAB586BB9019A73
:1040E000131FAB421A4602D8C8F8104005E0126808
:1040F000043B002AF8D1013CF3E7404601F033F9D4
:1041000000282ADB01362B46002057F804CB1A681A
:104110001FFA8CF1411A4FEA1C4C11FA82F1CCEBD8
:10412000124202EB214289B210144F4541EA024289
:1041300043F8042BE9D955F8242005EB840362B930
:10414000043BAB421A4602D8C8F8104005E012689A
:10415000043B002AF8D1013CF3E7304600E00020A0
:1041600003B0BDE8F08F00002DE9F04F456A9BB029
:104170008246279CCDE9042345B9102000F0BEFEFD
:10418000CAF82400456085600560C560DAF824300F
:10419000196861B15B684B60012202FA03F38B601E
:1041A000504600F000FFDAF8243000221A6005992A
:1041B000002905DA012321F000422360059201E085
:1041C00000232360059F9C4A27F000431B0D1B051D
:1041D00093421DD12699049A42F20F730B6042B9A3
:1041E000964B974AC7F3130000280CBF1046184699
:1041F00000E09248289F002F00F06885C37813B133
:1042000000F1080300E0C31C289F3B6000F05EBD86
:10421000DDE90445002220462946002301F038FE4E
:10422000804658B1269F01233B60289F002F00F055
:104230004A8584483860013800F048BD19AB0093C6
:1042400018AB0193504622462B4601F007F9C7F3FD
:104250000A5683465EB1C5F3130343F07F512046EF
:1042600041F44011A6F2FF36CDF854801CE0199BB2
:10427000189E1E446FF482639E4209DB04991F332B
:1042800006F212409B1B21FA00F09F40384304E0E5
:104290006D48049A801B02FA00F001F01BFB012715
:1042A000A1F1F871013E15970022684B01F0D4F995
:1042B0005BA3D3E9002301F083FB5BA3D3E90023D5
:1042C00001F0CCF9044630460D4601F013FB58A32B
:1042D000D3E9002301F074FB02460B462046294631
:1042E00001F0BCF904460D4601F004FE2946814662
:1042F00000222046002301F0D5FD58B1484601F0C8
:10430000F9FA02460B462046294601F0C1FD08B9DC
:1043100009F1FF39B9F1160F0DD84D4B03EBC90365
:10432000D3E90001DDE9042301F0DAFD30B109F140
:10433000FF39002700E00127149700E01490189B34
:104340009E1B013E099604D57742089700270997DE
:1043500001E000270897B9F1000F07DB099FCDF8AE
:1043600044904F44099700270E9708E0089FC9EB37
:1043700007070897C9F100070E9700271197249F98
:10438000092F28D8052FC4BF043F2497249FA7F1E5
:104390000203CCBF00250125032B21D8DFE803F061
:1043A000060F0204012702E0012709E000270F970A
:1043B000259F002F1EDD0B9707973B461FE0002728
:1043C0000F97259F4F440B9701373B460797012BCB
:1043D000B8BF012313E00125002724970F9501E0C2
:1043E00001270F974FF0FF370B97079700271223EE
:1043F000259704E001270B9707973B462597DAF8A6
:10440000244000226260042101F114029A4221D862
:104410006268013262604900F6E700BFAFF30080D6
:1044200061436F63A787D23FB3C8608B288AC63FBA
:10443000FB799F501344D33F0000F07F5E63000080
:104440005563000032630000EEFBFFFF0000F83F01
:10445000706300005046616800F070FDDAF82430A7
:10446000079F20601B680A930E2F00F26981002DC0
:1044700000F066819DED047BB9F1000F8DED127B9C
:1044800031DD804A09F00F0302EBC30393ED007B9B
:104490004FEA2914E0068DED0C7B0CD57A4BDDE953
:1044A0001201D3E9082301F0B5FB04F00F04CDE9B4
:1044B0000401032700E00227734D6CB1E10708D522
:1044C000DDE90C01D5E9002301F07AFACDE90C0110
:1044D000013764100835F0E7DDE90401DDE90C235C
:1044E00001F098FB1BE0C9F10004DCB1654B664D9F
:1044F00004F00F0203EBC203DDE91201D3E900234C
:1045000001F05EFA241102274CB1E20704D5D5E987
:104510000023013701F054FA64100835F4E7CDE9BF
:10452000040100E002271499E1B1DDE9044500220D
:1045300020462946554B01F0B5FCC0B1079ADAB1C7
:104540000B9B002B40F3F88009F1FF311091002202
:10455000204629464E4B01F033FA0137CDE90401DC
:104560000B9A0CE0079BCDF840900C9308E007995C
:10457000CDF840900C9103E0079ACDF840900C9252
:10458000384601F0B7F9DDE9042301F019FA0022F9
:10459000404B01F063F80C9F0446A1F15075CFB970
:1045A00000223D4BDDE9040101F056F822462B467E
:1045B00006460F4601F094FC002840F04B8222464C
:1045C00005F100433046394601F06CFC002840F00C
:1045D0003782B1E00C9F2B4B7A1E0F9F03EBC20377
:1045E000002F5DD0D3E9002300202C4901F012FBFD
:1045F00022462B4601F030F8DDE90467DDF828801B
:1046000004460D463946304601F074FC029001F034
:1046100071F902460B463046394601F01DF8DDF8C7
:1046200008C00CF1300308F8013B22462B46064631
:104630000F4601F037FC002840F0338332463B46FA
:104640000020124901F008F822462B4601F02AFC0E
:10465000002840F0D4800A990C9AC1EB08039342D9
:104660006ADA204629460022094B01F0A9F9002206
:1046700004460D4630463946054B01F0A1F9064681
:104680000F46BFE770630000486400000000F03F81
:104690000000244000001C40000014400000E03FE7
:1046A000D3E9000122462B4601F08AF9DDF8288083
:1046B0000C9B0A9CCDE91601DDE904679844394654
:1046C000304601F017FC054601F014F9303502467A
:1046D0000B463046394600F0BFFF04F8015B444505
:1046E00006460F4621D10022874BDDE9160100F076
:1046F000B5FF02460B463046394601F0F1FB002873
:104700007DD1DDE9162300207F4900F0A5FF024698
:104710000B463046394601F0C5FB68B1A046013C66
:1047200018F8013C302BF9D0BBE20022774B01F0A6
:1047300047F906460F46C2E79DED127B8DED047BDF
:10474000199B002B7CDBB9F10E0F79DC704B259F98
:1047500003EBC903002FD3E9004514DA079F002FAC
:1047600011DC40F06F81204629460022694B01F0A0
:1047700027F9DDE9042301F0A9FB079D2C46002859
:1047800040F062816AE1DDE90467DDF828802246B5
:104790002B463046394601F03DFA01F0ABFB049060
:1047A00001F0A8F822462B4601F00AF902460B4612
:1047B0003046394600F050FF049F07F1300608F8F4
:1047C000016B0A9FC7EB0806079FBE4202460B46D5
:1047D00029D100F043FF22462B4606460F4601F042
:1047E0007FFB70B93046394622462B4601F050FB1C
:1047F000002800F05882049FFB0702D453E2DDF842
:10480000409043469846013B18F8012C392A06D1BE
:104810000A9F9F42F6D1302209F101093A701A78B5
:1048200001321A703FE20022384B01F0C9F8002231
:10483000002306460F4601F02BFB0028A7D032E2EA
:104840000F9F002F30D0249F012F0ADC159F17B136
:1048500003F2334302E0189BC3F136030E9D089E1A
:1048600016E0079F7D1E0E9FAF4201DB7D1B06E019
:104870000E9F0E95EB1B119F1F4411970025079F5C
:10488000002F03DA08990023CE1B01E0089E079B46
:10489000089F1F440897099F50461F44012109970C
:1048A00000F01FFC044602E00E9D089E0F9C6EB1B6
:1048B000099F002F0ADD3B46089FB342A8BF33463D
:1048C000FF1A0897099FFF1AF61A09970E9F002FE3
:1048D00028DD0F9F07B3002D10DD21462A465046E4
:1048E00000F0A0FC04465A462146504600F002FC67
:1048F00059460746504600F056FBBB460E9F7A1BB2
:1049000010D0504659460AE00000E03F0000244025
:1049100070630000000014400E9A5046594600F0A3
:1049200081FC83465046012100F0DBFB119F002FE4
:10493000054605DD294650463A4600F073FC05461B
:10494000249F012F12DC049981B9059AC2F3130345
:1049500073B922F000473F0D3F0557B1089F01375B
:104960000897099F01370997012702E0002700E017
:10497000049F119941B12B6905EB8303186900F07D
:1049800063FBC0F1200000E00120099B034413F009
:104990001F0308D0C3F12002042A02DDC3F11C0367
:1049A00002E008D013461C33089A09991A441944A6
:1049B00008921E440991089A002A04DD594650467F
:1049C00000F07EFC8346099B002B05DD29465046FE
:1049D0001A4600F075FC05461499E1B1584629467F
:1049E00000F0C1FC002816DA59460A22504600237E
:1049F00000F0F0FA0F9A09F1FF3983464AB12146D7
:104A0000002350460A2200F0E5FA0B9B0793044668
:104A100001E00B990791079A002A29DC249B022BBD
:104A200026DD8AB929460522079B504600F0D2FAB6
:104A300005462946584600F096FC00280EDC03E0A7
:104A40000C9D00E000252C46259FDDF828806FEAAC
:104A500007090AE00C9DDDF840902C460A9F31239F
:104A600007F101083B7009F101092746002407E11D
:104A70000F99002900F0BB80002E05DD214650462D
:104A8000324600F01DFC04469FB16168504600F0BC
:104A900055FA22690232064604F10C0192000C30EC
:104AA00000F043FA50463146012200F009FC074667
:104AB00000E027460A9E29465846FFF7C7FA2146D6
:104AC00000F1300C80465846CDF808C000F04BFC91
:104AD0003A4608902946504600F062FCC368DDF86B
:104AE00008C002464BB911465846039200F03BFC01
:104AF000039ADDF808C0034600E001235046114642
:104B00000393CDF808C000F04EFA039BDDF808C00F
:104B100063B9249A52B9049901F0010232B9BCF187
:104B2000390F35D0089B002B24DC25E0089900299B
:104B300002DA002B08DC1FE023D1249A0ABB049977
:104B400001F00102EAB9F4E7594601225046CDF8D6
:104B500008C000F0B5FB2946834600F004FC00289D
:104B6000DDF808C003DC07D11CF0010F04D0BCF154
:104B7000390F0DD008F1310C06F1010886F800C09C
:104B80007EE0002B06F1010809DDBCF1390F03D1ED
:104B90003923337001365BE00CF1010368E00A9AB7
:104BA00007994646C2EB08038B4206F801CC3CD07D
:104BB00059460A220023504600F00CFABC428346B4
:104BC000214650464FF00A024FF0000304D100F096
:104BD00001FA044607466EE700F0FCF93946044640
:104BE0000A225046002300F0F5F9074663E70F9EBE
:104BF00058462946FFF72AFA0A9F00F1300C07F8B9
:104C000006C0079F0136BE4207DB0A9E012FACBFDC
:104C1000F61901362746002407E0594650460A2275
:104C2000002300F0D7F98346E2E7594601225046B7
:104C3000CDF808C000F044FB2946834600F093FB02
:104C40000028DDF808C003DC14D11CF0010F11D0DE
:104C500016F8013C392BB04606F1FF3607D10A9908
:104C6000B142F5D1312309F101090B7008E001339C
:104C7000337005E0B046013E18F8013C302BF9D006
:104C80005046294600F08FF96FB12CB1BC4203D0D9
:104C90005046214600F087F95046394600F083F926
:104CA00001E0DDF840905046594600F07CF90023C1
:104CB000269F88F8003009F101033B60289F27B147
:104CC000C7F8008001E0034800E00A981BB0BDE887
:104CD000F08F00BF316300008A892DE9F04105465D
:104CE00010070C4657D44B68002B02DC0B6C002BD2
:104CF00018DDE66AB6B102F48052002392B22F6842
:104D00002B600AB1626D10E0216A28460123B0478A
:104D1000411C024609D12B683BB11D2B01D0162B3B
:104D200046D12F600020BDE8F081A3895B0705D53F
:104D30006368D21A636B0BB1236CD21AE66A216ADC
:104D400028460023B047461CA28905D12B681BB119
:104D50001D2B01D0162B19D100236360D1042369C8
:104D6000236004D5421C01D12B6803B96065616BD7
:104D70002F600029D6D004F14403994202D028467E
:104D800000F0CCFB00206063BDE8F08142F04002FF
:104D9000A281BDE8F0810E69002EC3D00B680E60C1
:104DA000C6EB030893070CBF4B6900238B6012E02E
:104DB000A38943F04003A3814FF0FF30BDE8F081A9
:104DC000A76A216A284632464346B8470028EFDDE5
:104DD0000644C0EB0808B8F1000FF1DCA2E70000C0
:104DE00038B50B6905460C46DBB118B183690BB9C0
:104DF000FEF70CF90C4B9C4201D16C6808E00B4BA0
:104E00009C4201D1AC6803E0094B9C4208BFEC68AE
:104E1000B4F90C302BB128462146BDE83840FFF7E5
:104E20005BBF002038BD00BFA8620000C862000060
:104E3000E8620000004870477800002038B5074C51
:104E4000054600202060084611461A46FDF754FD2D
:104E5000431C02D1236803B12B6038BD2801002018
:104E6000F0B58B899E0791B005460C4626D4B1F962
:104E70000E10002909DAA38913F0800F4FF0000704
:104E800014BF40264FF480660DE001AA00F0BEFB7F
:104E90000028F0DB029F07F47047B7F500514F423E
:104EA0004F414FF4806628463146FEF747F960B916
:104EB000A3899A051DD443F00203A38104F147039B
:104EC000236023610123636113E00B4BAB62A38971
:104ED000206043F08003A381206166614FB12846C2
:104EE000B4F90E1000F0A4FB18B1A38943F001033C
:104EF000A38111B0F0BD00BF652F0000024B014639
:104F00001868FEF71BB900BF7400002010B5C9B2C5
:104F100002449042034606D01C788C4200F1010006
:104F2000F7D1184610BD002010BD10B500239342E4
:104F300003D0CC5CC4540133F9E710BD70B5456AA9
:104F400004460E463DB91020FFF7D8FF6062456069
:104F500085600560C560656AEB6843B1636ADA68BD
:104F600052F8260078B1016842F8261017E0204672
:104F70000421212200F0C4FA636AE860DB68002B98
:104F8000ECD1002070BD012101FA06F56A1D204612
:104F9000920000F0B5FA0028F3D046608560002248
:104FA0000261C26070BD70B5446A06460D463CB9E8
:104FB0001020FFF7A3FF7062446084600460C46047
:104FC0003DB1736A6A68DB6853F82210296043F8C0
:104FD000225070BD2DE9F0410C461E460D69074672
:104FE0001431002308681FFA80FC000C02FB0C6CD3
:104FF000504300EB1C4001331FFA8CFC060CAB4203
:105000000CEB004041F8040BECDBD6B1A3689D42E9
:1050100012DB616838460131FFF790FF22690232E6
:1050200004F10C01804692000C30FFF77EFF214610
:105030003846FFF7B8FF444604EB850301355E614F
:1050400025612046BDE8F081030C1B0413B9000460
:10505000102300E0002310F07F4F04BF000208334C
:1050600010F0704F04BF0001043310F0404F04BF34
:1050700080000233002803DB420003D5581C704730
:105080001846704720207047036813F007020BD0C2
:10509000D90722D49A0703D55B0803600120704723
:1050A0009B0803600220704799B209B91B0C1022BB
:1050B00013F0FF0F04BF1B0A0832190704BF1B09B6
:1050C0000432990704BF9B080232D90702D45B0857
:1050D00005D0013203601046704700207047202041
:1050E000704710B50C460121FFF728FF01224461EB
:1050F000026110BD2DE9F04F16460A6933699A42E4
:1051000085B00D4601DA35460E46D5F81080376970
:10511000AB68696808EB07049C42C8BF0131FFF720
:105120000DFF00F1140303EB840101911A46DDF831
:1051300004A0524503D2002142F8041BF7E705F111
:10514000140106F1140201EB880802EB8707CDF881
:1051500008800397039EB242154656D2B5F800C0A8
:105160000432BCF1000F25D00F461D46002657F82B
:10517000049BD5F800801FFA89FB1FFA88FA0CFB04
:105180000BAA4FEA19494FEA1848B2440CFB0988A8
:1051900008EB1A481FFA8AFA4AEA084A4FEA184600
:1051A000DDF80880AB46B8454BF804AB01D95D4645
:1051B000DDE76E6032F8028CB8F1000F23D01E6874
:1051C0000F461D464FF00009B7F800A0B5F802C021
:1051D00008FB0ACCE144B6B2AC4646EA09464CF8B4
:1051E000046B57F8046BB5F804A0360C08FB06A650
:1051F000DDF808A006EB194657454FEA164901D2DB
:105200006546E1E76E600433A4E7019B002C03DCF4
:10521000046105B0BDE8F08F53F8042D002AF7D1E2
:10522000013CF3E712F003032DE9F04105460E4679
:10523000174607D0013B214A52F823200023FFF7ED
:10524000C9FE0646BF1035D06C6A3CB91020FFF786
:1052500055FE6862446084600460C460D5F82480B0
:10526000D8F808407CB9284640F27121FFF739FF91
:105270000023C8F808000446036004E07F1019D03A
:10528000206870B10446FB07F8D53146224628460F
:10529000FFF730FF314680462846FFF784FE46463A
:1052A000ECE7284621462246FFF724FF0023206032
:1052B0000360E7E73046BDE8F08100BF38640000D6
:1052C0002DE9F0470C464FEA621A236949680AEB58
:1052D0000309A3688046154609F101079F4202DDD4
:1052E00001315B00FAE74046FFF728FE002306463F
:1052F00000F11402534504DA002142F8231001336F
:10530000F8E720692AEAEA7104F1140315F01F0C8A
:1053100002EB810103EB800E16D0CCF1200A0025B0
:1053200018680A4600FA0CF0054342F8045B53F88B
:10533000045B734525FA0AF501D21146F0E74D608A
:1053400045B109F1020705E053F8042B41F8042B9D
:105350007345F9D3013F404637612146FFF723FEED
:105360003046BDE8F08702690B69D21A10B513D137
:105370009C00143001F114020319224453F8044D27
:1053800052F8041D8C4203D008D24FF0FF3010BDFC
:105390009842F3D3002010BD104610BD012010BD6F
:1053A0002DE9F04706460C46084611461546FFF71C
:1053B000DAFF071E08D130463946FFF7BFFD01234B
:1053C00003614761BDE8F08701DB002703E0234666
:1053D00001272C461D4661683046FFF7AFFD226964
:1053E0002B69C760143405F1140606EB830A04EB3D
:1053F000820C00F11403002154F8047B56F8049B3E
:1054000011FA87F11FFA89F54FEA1949C5EB01082E
:10541000C9EB174707EB28471FFA88F83914B2453C
:1054200048EA0747254643F8047BE5D865450DD291
:1054300055F8044B11FA84F6240C04EB2644B6B25A
:10544000211446EA044443F8044BEFE753F8041DE3
:1054500009B9013AFAE70261BDE8F0872DE9F7439F
:1054600001211D46DDF82890DDF82C801446FFF759
:1054700065FDC5F30A570646C5F313030FB143F4A0
:1054800080130193D4B102A840F8084D6846FFF795
:10549000FBFD009B48B1019AC0F1200102FA01F125
:1054A0000B43C2407361019200E07361019BB361E1
:1054B000002B0CBF01240224346107E001A8FFF790
:1054C000E3FD0124019B7361346120303FB1A7F2F9
:1054D00033470744C9F80070C0F135000AE006EB15
:1054E0008403A0F23240C9F800001869FFF7ACFD50
:1054F000C0EB4410C8F80000304603B0BDE8F083AC
:1055000038B502FB01F42146FDF718FE054618B137
:1055100000212246FDF70AFE284638BD30B5002995
:105520003CD051F8042C0B1F1D49002AB8BF9B1812
:105530000A680C4612B95A600B6030BD93420DD216
:1055400019685818904203D15A581144426819609A
:105550005A60236030BD994203D80A465168002939
:10556000F9D1146815199D420AD11B682344D0183B
:105570008842136012D10868034413604B680CE042
:1055800002D90C23036030BD18681C188C4203D16B
:105590000C684968204418605960536030BD00BFF2
:1055A0001001002038B5074C054600202060084651
:1055B00011461A46FDF7AEF9431C02D1236803B128
:1055C0002B6038BD2801002031F0004310B500D118
:1055D00078B10C4AA3F5801494420CD9B3F5801F1E
:1055E0000BD3094A93420AD1D0F1010038BF002001
:1055F00010BD022010BD042010BD032010BD0020EE
:1056000010BD00BFFFFFDF7F0000F07F38B5074C03
:1056100000230546084611462360FDF751F9431C57
:1056200002D1236803B12B6038BD00BF28010020E0
:1056300038B5064C0023054608462360FDF750F9AF
:10564000431C02D1236803B12B6038BD2801002020
:1056500081F0004102E000BF83F0004330B54FEA23
:1056600041044FEA430594EA050F08BF90EA020F90
:105670001FBF54EA000C55EA020C7FEA645C7FEA23
:10568000655C00F0E2804FEA5454D4EB5555B8BF46
:105690006D420CDD2C4480EA020281EA030382EAB7
:1056A000000083EA010180EA020281EA0303362D49
:1056B00088BF30BD11F0004F4FEA01314FF4801C1C
:1056C0004CEA113102D0404261EB410113F0004F2E
:1056D0004FEA03334CEA133302D0524263EB4303E5
:1056E00094EA050F00F0A780A4F10104D5F1200E83
:1056F0000DDB02FA0EFC22FA05F2801841F10001DE
:1057000003FA0EF2801843FA05F359410EE0A5F1B1
:1057100020050EF1200E012A03FA0EFC28BF4CF0E2
:10572000020C43FA05F3C01851EBE37101F0004598
:1057300007D54FF0000EDCF1000C7EEB00006EEBA5
:105740000101B1F5801F1BD3B1F5001F0CD349082F
:105750005FEA30004FEA3C0C04F101044FEA445286
:1057600012F5800F80F09A80BCF1004F08BF5FEA0D
:10577000500C50F1000041EB045141EA050130BDED
:105780005FEA4C0C404141EB010111F4801FA4F190
:105790000104E9D191F0000F04BF01460020B1FAE5
:1057A00081F308BF2033A3F10B03B3F120020CDA1D
:1057B0000C3208DD02F1140CC2F10C0201FA0CF0FB
:1057C00021FA02F10CE002F11402D8BFC2F1200C60
:1057D00001FA02F120FA0CFCDCBF41EA0C01904016
:1057E000E41AA2BF01EB0451294330BD6FEA04045F
:1057F0001F3C1CDA0C340EDC04F11404C4F120024A
:1058000020FA04F001FA02F340EA030021FA04F35B
:1058100045EA030130BDC4F10C04C4F1200220FAB2
:1058200002F001FA04F340EA0300294630BD21FAF0
:1058300004F0294630BD94F0000F83F4801306BFB6
:1058400081F480110134013D4EE77FEA645C18BFAA
:105850007FEA655C29D094EA050F08BF90EA020F41
:1058600005D054EA000C04BF1946104630BD91EA39
:10587000030F1EBF0021002030BD5FEA545C05D13C
:105880004000494128BF41F0004130BD14F580047B
:105890003CBF01F5801130BD01F0004545F0FE41EF
:1058A00041F470014FF0000030BD7FEA645C1ABF24
:1058B000194610467FEA655C1CBF0B46024650EA5B
:1058C000013406BF52EA033591EA030F41F4002187
:1058D00030BD00BF90F0000F04BF0021704730B50D
:1058E0004FF4806404F132044FF000054FF00001E2
:1058F00050E700BF90F0000F04BF0021704730B5A3
:105900004FF4806404F1320410F0004548BF404277
:105910004FF000013EE700BF42004FEAE2014FEACC
:1059200031014FEA02701FBF12F07F4393F07F4FA7
:1059300081F06051704792F0000F14BF93F07F4FD9
:10594000704730B54FF4607401F0004521F000411C
:1059500020E700BF50EA010208BF704730B54FF0A2
:1059600000050AE050EA010208BF704730B511F0A7
:10597000004502D5404261EB41014FF4806404F1DF
:1059800032045FEA915C3FF4DCAE4FF003025FEA61
:10599000DC0C18BF03325FEADC0C18BF033202EBE9
:1059A000DC02C2F1200300FA03FC20FA02F001FA43
:1059B00003FE40EA0E0021FA02F11444C1E600BFE2
:1059C00070B54FF0FF0C4CF4E06C1CEA11541DBF95
:1059D0001CEA135594EA0C0F95EA0C0F00F0DEF860
:1059E0002C4481EA030621EA4C5123EA4C5350EA45
:1059F000013518BF52EA033541F4801143F4801396
:105A000038D0A0FB02CE4FF00005E1FB02E506F026
:105A10000042E0FB03E54FF00006E1FB03569CF07B
:105A2000000F18BF4EF0010EA4F1FF04B6F5007F81
:105A300064F5407404D25FEA4E0E6D4146EB0606F3
:105A400042EAC62141EA55514FEAC52040EA5E507C
:105A50004FEACE2EB4F1FD0C88BFBCF5E06F1ED826
:105A6000BEF1004F08BF5FEA500E50F1000041EB5D
:105A7000045170BD06F0004646EA010140EA02000A
:105A800081EA0301B4EB5C04C2BFD4EB0C0541EA2C
:105A9000045170BD41F480114FF0000E013C00F341
:105AA000AB8014F1360FDEBF002001F0004170BD65
:105AB000C4F10004203C35DA0C341BDC04F114047E
:105AC000C4F1200500FA05F320FA04F001FA05F20A
:105AD00040EA020001F0004221F0004110EBD370D7
